{
    "_format": "hh-sol-artifact-1",
    "contractName": "Web3Mint",
    "sourceName": "contracts/Web3Mint.sol",
    "abi": [
        {
            "inputs": [],
            "stateMutability": "nonpayable",
            "type": "constructor"
        },
        {
            "anonymous": false,
            "inputs": [
                {
                    "indexed": true,
                    "internalType": "address",
                    "name": "owner",
                    "type": "address"
                },
                {
                    "indexed": true,
                    "internalType": "address",
                    "name": "approved",
                    "type": "address"
                },
                {
                    "indexed": true,
                    "internalType": "uint256",
                    "name": "tokenId",
                    "type": "uint256"
                }
            ],
            "name": "Approval",
            "type": "event"
        },
        {
            "anonymous": false,
            "inputs": [
                {
                    "indexed": true,
                    "internalType": "address",
                    "name": "owner",
                    "type": "address"
                },
                {
                    "indexed": true,
                    "internalType": "address",
                    "name": "operator",
                    "type": "address"
                },
                {
                    "indexed": false,
                    "internalType": "bool",
                    "name": "approved",
                    "type": "bool"
                }
            ],
            "name": "ApprovalForAll",
            "type": "event"
        },
        {
            "anonymous": false,
            "inputs": [
                {
                    "indexed": true,
                    "internalType": "address",
                    "name": "from",
                    "type": "address"
                },
                {
                    "indexed": true,
                    "internalType": "address",
                    "name": "to",
                    "type": "address"
                },
                {
                    "indexed": true,
                    "internalType": "uint256",
                    "name": "tokenId",
                    "type": "uint256"
                }
            ],
            "name": "Transfer",
            "type": "event"
        },
        {
            "inputs": [
                {
                    "internalType": "address",
                    "name": "to",
                    "type": "address"
                },
                {
                    "internalType": "uint256",
                    "name": "tokenId",
                    "type": "uint256"
                }
            ],
            "name": "approve",
            "outputs": [],
            "stateMutability": "nonpayable",
            "type": "function"
        },
        {
            "inputs": [
                {
                    "internalType": "address",
                    "name": "owner",
                    "type": "address"
                }
            ],
            "name": "balanceOf",
            "outputs": [
                {
                    "internalType": "uint256",
                    "name": "",
                    "type": "uint256"
                }
            ],
            "stateMutability": "view",
            "type": "function"
        },
        {
            "inputs": [
                {
                    "internalType": "uint256",
                    "name": "tokenId",
                    "type": "uint256"
                }
            ],
            "name": "getApproved",
            "outputs": [
                {
                    "internalType": "address",
                    "name": "",
                    "type": "address"
                }
            ],
            "stateMutability": "view",
            "type": "function"
        },
        {
            "inputs": [
                {
                    "internalType": "address",
                    "name": "owner",
                    "type": "address"
                },
                {
                    "internalType": "address",
                    "name": "operator",
                    "type": "address"
                }
            ],
            "name": "isApprovedForAll",
            "outputs": [
                {
                    "internalType": "bool",
                    "name": "",
                    "type": "bool"
                }
            ],
            "stateMutability": "view",
            "type": "function"
        },
        {
            "inputs": [
                {
                    "internalType": "string",
                    "name": "name",
                    "type": "string"
                },
                {
                    "internalType": "string",
                    "name": "imageURI",
                    "type": "string"
                }
            ],
            "name": "mintIpfsNFT",
            "outputs": [],
            "stateMutability": "nonpayable",
            "type": "function"
        },
        {
            "inputs": [],
            "name": "name",
            "outputs": [
                {
                    "internalType": "string",
                    "name": "",
                    "type": "string"
                }
            ],
            "stateMutability": "view",
            "type": "function"
        },
        {
            "inputs": [
                {
                    "internalType": "uint256",
                    "name": "tokenId",
                    "type": "uint256"
                }
            ],
            "name": "ownerOf",
            "outputs": [
                {
                    "internalType": "address",
                    "name": "",
                    "type": "address"
                }
            ],
            "stateMutability": "view",
            "type": "function"
        },
        {
            "inputs": [],
            "name": "readTokenIds",
            "outputs": [],
            "stateMutability": "nonpayable",
            "type": "function"
        },
        {
            "inputs": [
                {
                    "internalType": "address",
                    "name": "from",
                    "type": "address"
                },
                {
                    "internalType": "address",
                    "name": "to",
                    "type": "address"
                },
                {
                    "internalType": "uint256",
                    "name": "tokenId",
                    "type": "uint256"
                }
            ],
            "name": "safeTransferFrom",
            "outputs": [],
            "stateMutability": "nonpayable",
            "type": "function"
        },
        {
            "inputs": [
                {
                    "internalType": "address",
                    "name": "from",
                    "type": "address"
                },
                {
                    "internalType": "address",
                    "name": "to",
                    "type": "address"
                },
                {
                    "internalType": "uint256",
                    "name": "tokenId",
                    "type": "uint256"
                },
                {
                    "internalType": "bytes",
                    "name": "data",
                    "type": "bytes"
                }
            ],
            "name": "safeTransferFrom",
            "outputs": [],
            "stateMutability": "nonpayable",
            "type": "function"
        },
        {
            "inputs": [
                {
                    "internalType": "address",
                    "name": "operator",
                    "type": "address"
                },
                {
                    "internalType": "bool",
                    "name": "approved",
                    "type": "bool"
                }
            ],
            "name": "setApprovalForAll",
            "outputs": [],
            "stateMutability": "nonpayable",
            "type": "function"
        },
        {
            "inputs": [
                {
                    "internalType": "bytes4",
                    "name": "interfaceId",
                    "type": "bytes4"
                }
            ],
            "name": "supportsInterface",
            "outputs": [
                {
                    "internalType": "bool",
                    "name": "",
                    "type": "bool"
                }
            ],
            "stateMutability": "view",
            "type": "function"
        },
        {
            "inputs": [],
            "name": "symbol",
            "outputs": [
                {
                    "internalType": "string",
                    "name": "",
                    "type": "string"
                }
            ],
            "stateMutability": "view",
            "type": "function"
        },
        {
            "inputs": [
                {
                    "internalType": "uint256",
                    "name": "_tokenId",
                    "type": "uint256"
                }
            ],
            "name": "tokenURI",
            "outputs": [
                {
                    "internalType": "string",
                    "name": "",
                    "type": "string"
                }
            ],
            "stateMutability": "view",
            "type": "function"
        },
        {
            "inputs": [
                {
                    "internalType": "address",
                    "name": "from",
                    "type": "address"
                },
                {
                    "internalType": "address",
                    "name": "to",
                    "type": "address"
                },
                {
                    "internalType": "uint256",
                    "name": "tokenId",
                    "type": "uint256"
                }
            ],
            "name": "transferFrom",
            "outputs": [],
            "stateMutability": "nonpayable",
            "type": "function"
        }
    ],
    "bytecode": "0x60806040523480156200001157600080fd5b506040518060400160405280600381526020017f4e465400000000000000000000000000000000000000000000000000000000008152506040518060400160405280600381526020017f6e66740000000000000000000000000000000000000000000000000000000000815250816000908051906020019062000096929190620001cf565b508060019080519060200190620000af929190620001cf565b505050620000fd6040518060400160405280601881526020017f54686973206973206d79204e465420636f6e74726163742e00000000000000008152506200010360201b62000af31760201c565b620003ac565b620001a3816040516024016200011a919062000323565b6040516020818303038152906040527f41304fac000000000000000000000000000000000000000000000000000000007bffffffffffffffffffffffffffffffffffffffffffffffffffffffff19166020820180517bffffffffffffffffffffffffffffffffffffffffffffffffffffffff8381831617835250505050620001a660201b60201c565b50565b60008151905060006a636f6e736f6c652e6c6f679050602083016000808483855afa5050505050565b828054620001dd9062000376565b90600052602060002090601f0160209004810192826200020157600085556200024d565b82601f106200021c57805160ff19168380011785556200024d565b828001600101855582156200024d579182015b828111156200024c5782518255916020019190600101906200022f565b5b5090506200025c919062000260565b5090565b5b808211156200027b57600081600090555060010162000261565b5090565b600081519050919050565b600082825260208201905092915050565b60005b83811015620002bb5780820151818401526020810190506200029e565b83811115620002cb576000848401525b50505050565b6000601f19601f8301169050919050565b6000620002ef826200027f565b620002fb81856200028a565b93506200030d8185602086016200029b565b6200031881620002d1565b840191505092915050565b600060208201905081810360008301526200033f8184620002e2565b905092915050565b7f4e487b7100000000000000000000000000000000000000000000000000000000600052602260045260246000fd5b600060028204905060018216806200038f57607f821691505b60208210811415620003a657620003a562000347565b5b50919050565b612e8680620003bc6000396000f3fe608060405234801561001057600080fd5b50600436106100f55760003560e01c806370a0823111610097578063c87b56dd11610066578063c87b56dd14610282578063e985e9c5146102b2578063eb00195d146102e2578063f15a0ac3146102fe576100f5565b806370a08231146101fc57806395d89b411461022c578063a22cb4651461024a578063b88d4fde14610266576100f5565b8063095ea7b3116100d3578063095ea7b31461017857806323b872dd1461019457806342842e0e146101b05780636352211e146101cc576100f5565b806301ffc9a7146100fa57806306fdde031461012a578063081812fc14610148575b600080fd5b610114600480360381019061010f9190611b3e565b610308565b6040516101219190611b86565b60405180910390f35b6101326103ea565b60405161013f9190611c3a565b60405180910390f35b610162600480360381019061015d9190611c92565b61047c565b60405161016f9190611d00565b60405180910390f35b610192600480360381019061018d9190611d47565b6104c2565b005b6101ae60048036038101906101a99190611d87565b6105da565b005b6101ca60048036038101906101c59190611d87565b61063a565b005b6101e660048036038101906101e19190611c92565b61065a565b6040516101f39190611d00565b60405180910390f35b61021660048036038101906102119190611dda565b61070c565b6040516102239190611e16565b60405180910390f35b6102346107c4565b6040516102419190611c3a565b60405180910390f35b610264600480360381019061025f9190611e5d565b610856565b005b610280600480360381019061027b9190611fd2565b61086c565b005b61029c60048036038101906102979190611c92565b6108ce565b6040516102a99190611c3a565b60405180910390f35b6102cc60048036038101906102c79190612055565b61097e565b6040516102d99190611b86565b60405180910390f35b6102fc60048036038101906102f79190612136565b610a12565b005b610306610ae2565b005b60007f80ac58cd000000000000000000000000000000000000000000000000000000007bffffffffffffffffffffffffffffffffffffffffffffffffffffffff1916827bffffffffffffffffffffffffffffffffffffffffffffffffffffffff191614806103d357507f5b5e139f000000000000000000000000000000000000000000000000000000007bffffffffffffffffffffffffffffffffffffffffffffffffffffffff1916827bffffffffffffffffffffffffffffffffffffffffffffffffffffffff1916145b806103e357506103e282610b8c565b5b9050919050565b6060600080546103f9906121dd565b80601f0160208091040260200160405190810160405280929190818152602001828054610425906121dd565b80156104725780601f1061044757610100808354040283529160200191610472565b820191906000526020600020905b81548152906001019060200180831161045557829003601f168201915b5050505050905090565b600061048782610bf6565b6004600083815260200190815260200160002060009054906101000a900473ffffffffffffffffffffffffffffffffffffffff169050919050565b60006104cd8261065a565b90508073ffffffffffffffffffffffffffffffffffffffff168373ffffffffffffffffffffffffffffffffffffffff16141561053e576040517f08c379a000000000000000000000000000000000000000000000000000000000815260040161053590612281565b60405180910390fd5b8073ffffffffffffffffffffffffffffffffffffffff1661055d610c41565b73ffffffffffffffffffffffffffffffffffffffff16148061058c575061058b81610586610c41565b61097e565b5b6105cb576040517f08c379a00000000000000000000000000000000000000000000000000000000081526004016105c290612313565b60405180910390fd5b6105d58383610c49565b505050565b6105eb6105e5610c41565b82610d02565b61062a576040517f08c379a0000000000000000000000000000000000000000000000000000000008152600401610621906123a5565b60405180910390fd5b610635838383610d97565b505050565b6106558383836040518060200160405280600081525061086c565b505050565b6000806002600084815260200190815260200160002060009054906101000a900473ffffffffffffffffffffffffffffffffffffffff169050600073ffffffffffffffffffffffffffffffffffffffff168173ffffffffffffffffffffffffffffffffffffffff161415610703576040517f08c379a00000000000000000000000000000000000000000000000000000000081526004016106fa90612411565b60405180910390fd5b80915050919050565b60008073ffffffffffffffffffffffffffffffffffffffff168273ffffffffffffffffffffffffffffffffffffffff16141561077d576040517f08c379a0000000000000000000000000000000000000000000000000000000008152600401610774906124a3565b60405180910390fd5b600360008373ffffffffffffffffffffffffffffffffffffffff1673ffffffffffffffffffffffffffffffffffffffff168152602001908152602001600020549050919050565b6060600180546107d3906121dd565b80601f01602080910402602001604051908101604052809291908181526020018280546107ff906121dd565b801561084c5780601f106108215761010080835404028352916020019161084c565b820191906000526020600020905b81548152906001019060200180831161082f57829003601f168201915b5050505050905090565b610868610861610c41565b8383610ffe565b5050565b61087d610877610c41565b83610d02565b6108bc576040517f08c379a00000000000000000000000000000000000000000000000000000000081526004016108b3906123a5565b60405180910390fd5b6108c88484848461116b565b50505050565b6060600061094e600684815481106108e9576108e86124c3565b5b9060005260206000209060020201600001610903856111c7565b60068681548110610917576109166124c3565b5b906000526020600020906002020160010160405160200161093a93929190612718565b604051602081830303815290604052611328565b905060008160405160200161096391906127c1565b60405160208183030381529060405290508092505050919050565b6000600560008473ffffffffffffffffffffffffffffffffffffffff1673ffffffffffffffffffffffffffffffffffffffff16815260200190815260200160002060008373ffffffffffffffffffffffffffffffffffffffff1673ffffffffffffffffffffffffffffffffffffffff16815260200190815260200160002060009054906101000a900460ff16905092915050565b6000610a1e60076114c0565b9050601e811015610add57610a3333826114ce565b600660405180604001604052808581526020018481525090806001815401808255809150506001900390600052602060002090600202016000909190919091506000820151816000019080519060200190610a8f929190611a2f565b506020820151816001019080519060200190610aac929190611a2f565b505050610ad2604051806060016040528060258152602001612dec6025913982336114ec565b610adc600761158b565b5b505050565b6000610aee60076114c0565b905050565b610b8981604051602401610b079190611c3a565b6040516020818303038152906040527f41304fac000000000000000000000000000000000000000000000000000000007bffffffffffffffffffffffffffffffffffffffffffffffffffffffff19166020820180517bffffffffffffffffffffffffffffffffffffffffffffffffffffffff83818316178352505050506115a1565b50565b60007f01ffc9a7000000000000000000000000000000000000000000000000000000007bffffffffffffffffffffffffffffffffffffffffffffffffffffffff1916827bffffffffffffffffffffffffffffffffffffffffffffffffffffffff1916149050919050565b610bff816115ca565b610c3e576040517f08c379a0000000000000000000000000000000000000000000000000000000008152600401610c3590612411565b60405180910390fd5b50565b600033905090565b816004600083815260200190815260200160002060006101000a81548173ffffffffffffffffffffffffffffffffffffffff021916908373ffffffffffffffffffffffffffffffffffffffff160217905550808273ffffffffffffffffffffffffffffffffffffffff16610cbc8361065a565b73ffffffffffffffffffffffffffffffffffffffff167f8c5be1e5ebec7d5bd14f71427d1e84f3dd0314c0f7b2291e5b200ac8c7c3b92560405160405180910390a45050565b600080610d0e8361065a565b90508073ffffffffffffffffffffffffffffffffffffffff168473ffffffffffffffffffffffffffffffffffffffff161480610d505750610d4f818561097e565b5b80610d8e57508373ffffffffffffffffffffffffffffffffffffffff16610d768461047c565b73ffffffffffffffffffffffffffffffffffffffff16145b91505092915050565b8273ffffffffffffffffffffffffffffffffffffffff16610db78261065a565b73ffffffffffffffffffffffffffffffffffffffff1614610e0d576040517f08c379a0000000000000000000000000000000000000000000000000000000008152600401610e0490612855565b60405180910390fd5b600073ffffffffffffffffffffffffffffffffffffffff168273ffffffffffffffffffffffffffffffffffffffff161415610e7d576040517f08c379a0000000000000000000000000000000000000000000000000000000008152600401610e74906128e7565b60405180910390fd5b610e88838383611636565b610e93600082610c49565b6001600360008573ffffffffffffffffffffffffffffffffffffffff1673ffffffffffffffffffffffffffffffffffffffff1681526020019081526020016000206000828254610ee39190612936565b925050819055506001600360008473ffffffffffffffffffffffffffffffffffffffff1673ffffffffffffffffffffffffffffffffffffffff1681526020019081526020016000206000828254610f3a919061296a565b92505081905550816002600083815260200190815260200160002060006101000a81548173ffffffffffffffffffffffffffffffffffffffff021916908373ffffffffffffffffffffffffffffffffffffffff160217905550808273ffffffffffffffffffffffffffffffffffffffff168473ffffffffffffffffffffffffffffffffffffffff167fddf252ad1be2c89b69c2b068fc378daa952ba7f163c4a11628f55a4df523b3ef60405160405180910390a4610ff983838361163b565b505050565b8173ffffffffffffffffffffffffffffffffffffffff168373ffffffffffffffffffffffffffffffffffffffff16141561106d576040517f08c379a000000000000000000000000000000000000000000000000000000000815260040161106490612a0c565b60405180910390fd5b80600560008573ffffffffffffffffffffffffffffffffffffffff1673ffffffffffffffffffffffffffffffffffffffff16815260200190815260200160002060008473ffffffffffffffffffffffffffffffffffffffff1673ffffffffffffffffffffffffffffffffffffffff16815260200190815260200160002060006101000a81548160ff0219169083151502179055508173ffffffffffffffffffffffffffffffffffffffff168373ffffffffffffffffffffffffffffffffffffffff167f17307eab39ab6107e8899845ad3d59bd9653f200f220920489ca2b5937696c318360405161115e9190611b86565b60405180910390a3505050565b611176848484610d97565b61118284848484611640565b6111c1576040517f08c379a00000000000000000000000000000000000000000000000000000000081526004016111b890612a9e565b60405180910390fd5b50505050565b6060600082141561120f576040518060400160405280600181526020017f30000000000000000000000000000000000000000000000000000000000000008152509050611323565b600082905060005b6000821461124157808061122a90612abe565b915050600a8261123a9190612b36565b9150611217565b60008167ffffffffffffffff81111561125d5761125c611ea7565b5b6040519080825280601f01601f19166020018201604052801561128f5781602001600182028036833780820191505090505b5090505b6000851461131c576001826112a89190612936565b9150600a856112b79190612b67565b60306112c3919061296a565b60f81b8183815181106112d9576112d86124c3565b5b60200101907effffffffffffffffffffffffffffffffffffffffffffffffffffffffffffff1916908160001a905350600a856113159190612b36565b9450611293565b8093505050505b919050565b6060600082519050600081141561135157604051806020016040528060008152509150506114bb565b60006003600283611362919061296a565b61136c9190612b36565b60046113789190612b98565b90506000602082611389919061296a565b67ffffffffffffffff8111156113a2576113a1611ea7565b5b6040519080825280601f01601f1916602001820160405280156113d45781602001600182028036833780820191505090505b5090506000604051806060016040528060408152602001612e11604091399050600181016020830160005b868110156114785760038101905062ffffff818a015116603f8160121c168401518060081b905060ff603f83600c1c1686015116810190508060081b905060ff603f8360061c1686015116810190508060081b905060ff603f831686015116810190508060e01b905080845260048401935050506113ff565b50600386066001811461149257600281146114a2576114ad565b613d3d60f01b60028303526114ad565b603d60f81b60018303525b508484525050819450505050505b919050565b600081600001549050919050565b6114e88282604051806020016040528060008152506117d7565b5050565b61158683838360405160240161150493929190612bf2565b6040516020818303038152906040527fe3849f79000000000000000000000000000000000000000000000000000000007bffffffffffffffffffffffffffffffffffffffffffffffffffffffff19166020820180517bffffffffffffffffffffffffffffffffffffffffffffffffffffffff83818316178352505050506115a1565b505050565b6001816000016000828254019250508190555050565b60008151905060006a636f6e736f6c652e6c6f679050602083016000808483855afa5050505050565b60008073ffffffffffffffffffffffffffffffffffffffff166002600084815260200190815260200160002060009054906101000a900473ffffffffffffffffffffffffffffffffffffffff1673ffffffffffffffffffffffffffffffffffffffff1614159050919050565b505050565b505050565b60006116618473ffffffffffffffffffffffffffffffffffffffff16611832565b156117ca578373ffffffffffffffffffffffffffffffffffffffff1663150b7a0261168a610c41565b8786866040518563ffffffff1660e01b81526004016116ac9493929190612c85565b602060405180830381600087803b1580156116c657600080fd5b505af19250505080156116f757506040513d601f19601f820116820180604052508101906116f49190612ce6565b60015b61177a573d8060008114611727576040519150601f19603f3d011682016040523d82523d6000602084013e61172c565b606091505b50600081511415611772576040517f08c379a000000000000000000000000000000000000000000000000000000000815260040161176990612a9e565b60405180910390fd5b805181602001fd5b63150b7a0260e01b7bffffffffffffffffffffffffffffffffffffffffffffffffffffffff1916817bffffffffffffffffffffffffffffffffffffffffffffffffffffffff1916149150506117cf565b600190505b949350505050565b6117e18383611855565b6117ee6000848484611640565b61182d576040517f08c379a000000000000000000000000000000000000000000000000000000000815260040161182490612a9e565b60405180910390fd5b505050565b6000808273ffffffffffffffffffffffffffffffffffffffff163b119050919050565b600073ffffffffffffffffffffffffffffffffffffffff168273ffffffffffffffffffffffffffffffffffffffff1614156118c5576040517f08c379a00000000000000000000000000000000000000000000000000000000081526004016118bc90612d5f565b60405180910390fd5b6118ce816115ca565b1561190e576040517f08c379a000000000000000000000000000000000000000000000000000000000815260040161190590612dcb565b60405180910390fd5b61191a60008383611636565b6001600360008473ffffffffffffffffffffffffffffffffffffffff1673ffffffffffffffffffffffffffffffffffffffff168152602001908152602001600020600082825461196a919061296a565b92505081905550816002600083815260200190815260200160002060006101000a81548173ffffffffffffffffffffffffffffffffffffffff021916908373ffffffffffffffffffffffffffffffffffffffff160217905550808273ffffffffffffffffffffffffffffffffffffffff16600073ffffffffffffffffffffffffffffffffffffffff167fddf252ad1be2c89b69c2b068fc378daa952ba7f163c4a11628f55a4df523b3ef60405160405180910390a4611a2b6000838361163b565b5050565b828054611a3b906121dd565b90600052602060002090601f016020900481019282611a5d5760008555611aa4565b82601f10611a7657805160ff1916838001178555611aa4565b82800160010185558215611aa4579182015b82811115611aa3578251825591602001919060010190611a88565b5b509050611ab19190611ab5565b5090565b5b80821115611ace576000816000905550600101611ab6565b5090565b6000604051905090565b600080fd5b600080fd5b60007fffffffff0000000000000000000000000000000000000000000000000000000082169050919050565b611b1b81611ae6565b8114611b2657600080fd5b50565b600081359050611b3881611b12565b92915050565b600060208284031215611b5457611b53611adc565b5b6000611b6284828501611b29565b91505092915050565b60008115159050919050565b611b8081611b6b565b82525050565b6000602082019050611b9b6000830184611b77565b92915050565b600081519050919050565b600082825260208201905092915050565b60005b83811015611bdb578082015181840152602081019050611bc0565b83811115611bea576000848401525b50505050565b6000601f19601f8301169050919050565b6000611c0c82611ba1565b611c168185611bac565b9350611c26818560208601611bbd565b611c2f81611bf0565b840191505092915050565b60006020820190508181036000830152611c548184611c01565b905092915050565b6000819050919050565b611c6f81611c5c565b8114611c7a57600080fd5b50565b600081359050611c8c81611c66565b92915050565b600060208284031215611ca857611ca7611adc565b5b6000611cb684828501611c7d565b91505092915050565b600073ffffffffffffffffffffffffffffffffffffffff82169050919050565b6000611cea82611cbf565b9050919050565b611cfa81611cdf565b82525050565b6000602082019050611d156000830184611cf1565b92915050565b611d2481611cdf565b8114611d2f57600080fd5b50565b600081359050611d4181611d1b565b92915050565b60008060408385031215611d5e57611d5d611adc565b5b6000611d6c85828601611d32565b9250506020611d7d85828601611c7d565b9150509250929050565b600080600060608486031215611da057611d9f611adc565b5b6000611dae86828701611d32565b9350506020611dbf86828701611d32565b9250506040611dd086828701611c7d565b9150509250925092565b600060208284031215611df057611def611adc565b5b6000611dfe84828501611d32565b91505092915050565b611e1081611c5c565b82525050565b6000602082019050611e2b6000830184611e07565b92915050565b611e3a81611b6b565b8114611e4557600080fd5b50565b600081359050611e5781611e31565b92915050565b60008060408385031215611e7457611e73611adc565b5b6000611e8285828601611d32565b9250506020611e9385828601611e48565b9150509250929050565b600080fd5b600080fd5b7f4e487b7100000000000000000000000000000000000000000000000000000000600052604160045260246000fd5b611edf82611bf0565b810181811067ffffffffffffffff82111715611efe57611efd611ea7565b5b80604052505050565b6000611f11611ad2565b9050611f1d8282611ed6565b919050565b600067ffffffffffffffff821115611f3d57611f3c611ea7565b5b611f4682611bf0565b9050602081019050919050565b82818337600083830152505050565b6000611f75611f7084611f22565b611f07565b905082815260208101848484011115611f9157611f90611ea2565b5b611f9c848285611f53565b509392505050565b600082601f830112611fb957611fb8611e9d565b5b8135611fc9848260208601611f62565b91505092915050565b60008060008060808587031215611fec57611feb611adc565b5b6000611ffa87828801611d32565b945050602061200b87828801611d32565b935050604061201c87828801611c7d565b925050606085013567ffffffffffffffff81111561203d5761203c611ae1565b5b61204987828801611fa4565b91505092959194509250565b6000806040838503121561206c5761206b611adc565b5b600061207a85828601611d32565b925050602061208b85828601611d32565b9150509250929050565b600067ffffffffffffffff8211156120b0576120af611ea7565b5b6120b982611bf0565b9050602081019050919050565b60006120d96120d484612095565b611f07565b9050828152602081018484840111156120f5576120f4611ea2565b5b612100848285611f53565b509392505050565b600082601f83011261211d5761211c611e9d565b5b813561212d8482602086016120c6565b91505092915050565b6000806040838503121561214d5761214c611adc565b5b600083013567ffffffffffffffff81111561216b5761216a611ae1565b5b61217785828601612108565b925050602083013567ffffffffffffffff81111561219857612197611ae1565b5b6121a485828601612108565b9150509250929050565b7f4e487b7100000000000000000000000000000000000000000000000000000000600052602260045260246000fd5b600060028204905060018216806121f557607f821691505b60208210811415612209576122086121ae565b5b50919050565b7f4552433732313a20617070726f76616c20746f2063757272656e74206f776e6560008201527f7200000000000000000000000000000000000000000000000000000000000000602082015250565b600061226b602183611bac565b91506122768261220f565b604082019050919050565b6000602082019050818103600083015261229a8161225e565b9050919050565b7f4552433732313a20617070726f76652063616c6c6572206973206e6f7420746f60008201527f6b656e206f776e6572206e6f7220617070726f76656420666f7220616c6c0000602082015250565b60006122fd603e83611bac565b9150612308826122a1565b604082019050919050565b6000602082019050818103600083015261232c816122f0565b9050919050565b7f4552433732313a2063616c6c6572206973206e6f7420746f6b656e206f776e6560008201527f72206e6f7220617070726f766564000000000000000000000000000000000000602082015250565b600061238f602e83611bac565b915061239a82612333565b604082019050919050565b600060208201905081810360008301526123be81612382565b9050919050565b7f4552433732313a20696e76616c696420746f6b656e2049440000000000000000600082015250565b60006123fb601883611bac565b9150612406826123c5565b602082019050919050565b6000602082019050818103600083015261242a816123ee565b9050919050565b7f4552433732313a2061646472657373207a65726f206973206e6f74206120766160008201527f6c6964206f776e65720000000000000000000000000000000000000000000000602082015250565b600061248d602983611bac565b915061249882612431565b604082019050919050565b600060208201905081810360008301526124bc81612480565b9050919050565b7f4e487b7100000000000000000000000000000000000000000000000000000000600052603260045260246000fd5b600081905092915050565b7f7b226e616d65223a202200000000000000000000000000000000000000000000600082015250565b6000612533600a836124f2565b915061253e826124fd565b600a82019050919050565b60008190508160005260206000209050919050565b6000815461256b816121dd565b61257581866124f2565b9450600182166000811461259057600181146125a1576125d4565b60ff198316865281860193506125d4565b6125aa85612549565b60005b838110156125cc578154818901526001820191506020810190506125ad565b838801955050505b50505092915050565b7f202d2d204e465420233a20000000000000000000000000000000000000000000600082015250565b6000612613600b836124f2565b915061261e826125dd565b600b82019050919050565b600061263482611ba1565b61263e81856124f2565b935061264e818560208601611bbd565b80840191505092915050565b7f222c20226465736372697074696f6e223a2022416e2065706963204e4654222c60008201527f2022696d616765223a2022697066733a2f2f0000000000000000000000000000602082015250565b60006126b66032836124f2565b91506126c18261265a565b603282019050919050565b7f227d000000000000000000000000000000000000000000000000000000000000600082015250565b60006127026002836124f2565b915061270d826126cc565b600282019050919050565b600061272382612526565b915061272f828661255e565b915061273a82612606565b91506127468285612629565b9150612751826126a9565b915061275d828461255e565b9150612768826126f5565b9150819050949350505050565b7f646174613a6170706c69636174696f6e2f6a736f6e3b6261736536342c000000600082015250565b60006127ab601d836124f2565b91506127b682612775565b601d82019050919050565b60006127cc8261279e565b91506127d88284612629565b915081905092915050565b7f4552433732313a207472616e736665722066726f6d20696e636f72726563742060008201527f6f776e6572000000000000000000000000000000000000000000000000000000602082015250565b600061283f602583611bac565b915061284a826127e3565b604082019050919050565b6000602082019050818103600083015261286e81612832565b9050919050565b7f4552433732313a207472616e7366657220746f20746865207a65726f2061646460008201527f7265737300000000000000000000000000000000000000000000000000000000602082015250565b60006128d1602483611bac565b91506128dc82612875565b604082019050919050565b60006020820190508181036000830152612900816128c4565b9050919050565b7f4e487b7100000000000000000000000000000000000000000000000000000000600052601160045260246000fd5b600061294182611c5c565b915061294c83611c5c565b92508282101561295f5761295e612907565b5b828203905092915050565b600061297582611c5c565b915061298083611c5c565b9250827fffffffffffffffffffffffffffffffffffffffffffffffffffffffffffffffff038211156129b5576129b4612907565b5b828201905092915050565b7f4552433732313a20617070726f766520746f2063616c6c657200000000000000600082015250565b60006129f6601983611bac565b9150612a01826129c0565b602082019050919050565b60006020820190508181036000830152612a25816129e9565b9050919050565b7f4552433732313a207472616e7366657220746f206e6f6e20455243373231526560008201527f63656976657220696d706c656d656e7465720000000000000000000000000000602082015250565b6000612a88603283611bac565b9150612a9382612a2c565b604082019050919050565b60006020820190508181036000830152612ab781612a7b565b9050919050565b6000612ac982611c5c565b91507fffffffffffffffffffffffffffffffffffffffffffffffffffffffffffffffff821415612afc57612afb612907565b5b600182019050919050565b7f4e487b7100000000000000000000000000000000000000000000000000000000600052601260045260246000fd5b6000612b4182611c5c565b9150612b4c83611c5c565b925082612b5c57612b5b612b07565b5b828204905092915050565b6000612b7282611c5c565b9150612b7d83611c5c565b925082612b8d57612b8c612b07565b5b828206905092915050565b6000612ba382611c5c565b9150612bae83611c5c565b9250817fffffffffffffffffffffffffffffffffffffffffffffffffffffffffffffffff0483118215151615612be757612be6612907565b5b828202905092915050565b60006060820190508181036000830152612c0c8186611c01565b9050612c1b6020830185611e07565b612c286040830184611cf1565b949350505050565b600081519050919050565b600082825260208201905092915050565b6000612c5782612c30565b612c618185612c3b565b9350612c71818560208601611bbd565b612c7a81611bf0565b840191505092915050565b6000608082019050612c9a6000830187611cf1565b612ca76020830186611cf1565b612cb46040830185611e07565b8181036060830152612cc68184612c4c565b905095945050505050565b600081519050612ce081611b12565b92915050565b600060208284031215612cfc57612cfb611adc565b5b6000612d0a84828501612cd1565b91505092915050565b7f4552433732313a206d696e7420746f20746865207a65726f2061646472657373600082015250565b6000612d49602083611bac565b9150612d5482612d13565b602082019050919050565b60006020820190508181036000830152612d7881612d3c565b9050919050565b7f4552433732313a20746f6b656e20616c7265616479206d696e74656400000000600082015250565b6000612db5601c83611bac565b9150612dc082612d7f565b602082019050919050565b60006020820190508181036000830152612de481612da8565b905091905056fe416e204e465420772f20494420257320686173206265656e206d696e74656420746f2025734142434445464748494a4b4c4d4e4f505152535455565758595a6162636465666768696a6b6c6d6e6f707172737475767778797a303132333435363738392b2fa264697066735822122022afb5dff119775b0e3749ed1e650bd2b3ba9c2f490885fd600b849bd80256f464736f6c63430008090033",
    "linkReferences": {},
    "deployedLinkReferences": {}
}